:1000000010C02AC042C528C027C026C025C024C0B1
:1000100023C022C221C025C41FC01EC01DC01CC0D9
:100020001BC011241FBECFE5D2E0DEBFCDBF11E063
:10003000A0E6B0E0E2E8FBE002C005900D92A03E31
:10004000B107D9F722E0A0EEB1E001C01D92A830BF
:10005000B207E1F702D093C5D3CF0F931F93CF938D
:10006000DF93CDB7DEB7A0970FB6F894DEBF0FBE13
:10007000CDBF86E490E020E8FC012083789475D120
:100080009E012D5E3F4FCE010D96B901A2D11FD426
:100090009E012B5E3F4FCE010F96B9019FD41E8A61
:1000A0001D8A1C821B8212C08B819C81880F991F24
:1000B0009E012F5F3F4F820F931F4696FC011182D6
:1000C00010828B819C8101969C838B838B819C8188
:1000D0008430910548F31E821D8289819A81988718
:1000E0008F8380E090E00CD49A83898381E090E054
:1000F00007D49A87898782E090E002D49C878B8717
:1001000089819A818A30910511F41E8A1D8A2D8970
:100110003E898F859889A989BA896B857C85E98113
:10012000FA8189019C01AD01CF010CD09E878D879A
:1001300089859A8522E930E0B9010DD5CB019C8BE8
:100140008B8BCBCF0F931F93CF93DF93CDB7DEB7BE
:1001500064970FB6F894DEBF0FBECDBF9C878B8728
:100160007E876D872F87388B498B5A8B1C8B0B8B27
:100170008B899C898130910589F48F859889A9891B
:10018000BA89B695A79597958795B695A7959795AA
:10019000879589839A83AB83BC8315C08B899C899F
:1001A000009789F42AE034E08B859C85A901481BDF
:1001B000590BCA0196958795CC01A0E0B0E08983E0
:1001C0009A83AB83BC838D859E85892F99279E83D7
:1001D0008D8389819A818C7F98878F838D819E8181
:1001E0008130910529F48F8198859695879523C054
:1001F0008D819E818230910581F42F813885C901DE
:10020000880F991F820F931F9A87898789859A85FE
:1002100096958795969587950EC08D819E818330A2
:10022000910539F48F819885969587959695879550
:1002300002C08F81988564960FB6F894DEBF0FBE1A
:10024000CDBFDF91CF911F910F910895CF93DF9391
:10025000CDB7DEB760970FB6F894DEBF0FBECDBF47
:100260009C878B877E876D87588B4F878F85988972
:10027000FC018081918198878F831A8219821C8268
:100280001B828F819885880F991F2D853E85820F4F
:10029000931F2B853C85FC01318320831E821D82A8
:1002A00016C08D819E81880F991F2D853E85820FF6
:1002B000931FFC01808191812B813C81820F931FD0
:1002C0009C838B838D819E8101969E838D838D81FE
:1002D0009E818430910528F38B819C81969587952A
:1002E000969587959A8789878B859C859C01225056
:1002F000310989859A858217930750F08B859C85F3
:100300009C012E5F3F4F89859A852817390770F425
:1003100081E090E09A83898388E390E028E330E0ED
:10032000F90120812460FC01208309C088E390E06A
:1003300028E330E0F90120812B7FFC0120838F81AD
:10034000988501969C01237033278F859889FC013D
:100350003183208389819A8160960FB6F894DEBF3D
:100360000FBECDBFDF91CF910895CF93DF93CDB76F
:10037000DEB78FE490E023E8FC0120838EE490E078
:1003800029E0FC0120838AE390E02AE330E0F901D0
:1003900020812064FC0120838AE490E02FEF31E08B
:1003A000FC0131832083DF91CF910895CF93DF93B8
:1003B00000D0CDB7DEB79A8389838AE490E02981A3
:1003C0003A81FC01318320830F900F90DF91CF9110
:1003D0000895CF93DF9300D000D0CDB7DEB79A83D6
:1003E00089837C836B8380E590E0FC01108283E548
:1003F00090E024E0FC01208389819A819093F701A9
:100400008093F6018B819C819093F9018093F80190
:100410001092FD011092FC011092FB011092FA0162
:1004200007D00F900F900F900F90DF91CF9108950C
:10043000CF93DF93CDB7DEB789E590E029E530E0D3
:10044000F90120812360FC01208386E590E0FC0116
:100450001082DF91CF9108951F920F9200905F005C
:100460000F9211242F933F934F935F936F937F933A
:100470008F939F93EF93FF93CF93DF93CDB7DEB727
:100480008091F6019091F701FC0180819181909318
:100490000302809302028091FA019091FB01982F50
:1004A00088279093E7018093E60186E590E0FC01C0
:1004B0008081282F30E08091E6019091E701820F42
:1004C000931F9093070280930602209106023091B9
:1004D000070280910202909103022817390708F45D
:1004E000AEC11092FB011092FA0186E590E026E57C
:1004F00030E0F90140812091020230910302240F83
:10050000FC0120838091FC019091FD010196937084
:100510009093FD018093FC018091F8019091F90185
:10052000FC01808191819093E1018093E0018091B1
:10053000E0019091E101009751F48AE490E020916C
:10054000FC013091FD01FC013183208378C1809151
:10055000E0019091E1018130910581F48AE490E01D
:100560002091FC013091FD0140E054E0BA01621B92
:10057000730B9B01FC013183208361C18091E001F9
:100580009091E1018230910529F58091FC019091D3
:10059000FD018115F2E09F0760F48AE490E020916C
:1005A000FC013091FD01220F331FFC0131832083B8
:1005B00046C12AE430E04091FC015091FD0180E009
:1005C00090E0841B950B880F991F985FF901918328
:1005D000808335C18091E0019091E10183309105E4
:1005E000B1F48091FC019091FD018115F2E09F072B
:1005F00030F48AE490E0FC011182108220C18AE488
:1006000090E02FEF33E0FC013183208318C110927A
:10061000E9011092E8011092FF011092FE01809111
:10062000FC019091FD0196958795969587959093FD
:10063000F5018093F4018091FC019091FD01969564
:10064000879596958795969587959093F1018093D8
:10065000F0018091E0019091E1018430910509F071
:1006600047C08091F4019091F501805A9F4FFC01A1
:100670008081282F30E08091F4019091F50101965E
:100680009927805A9F4FFC018081882F90E0A90113
:10069000481B590BCA019093050280930402809174
:1006A000E8019091E9012091040230910502B9011D
:1006B00041D29093ED018093EC018AE490E0209187
:1006C000F4013091F501205A3F4FF9012081222F8A
:1006D00030E0A901440F551F440F551F2091EC0134
:1006E0003091ED01240F351FFC0131832083A7C019
:1006F0008091E0019091E1018530910509F050C0B1
:100700008091F0019091F101805A9E4FFC0180810F
:10071000882F90E02091F0013091F1012F5F3F4F41
:100720002F773327205A3E4FF9012081222F30E0C6
:1007300041E050E0BA01621B730B9B0102C0880FBD
:10074000991F2A95E2F79093050280930402809105
:10075000FE019091FF012091040230910502B90140
:10076000E9D19093ED018093EC018AE490E020912F
:10077000F0013091F101205A3E4FF9012081222FE2
:1007800030E0A901440F551F440F551F2091EC0183
:100790003091ED01240F351FFC01318320834FC0C0
:1007A0008091E0019091E1018730910509F047C007
:1007B0008091F0019091F101805A9E4FFC0180815F
:1007C000282F30E08091F0019091F10101968F7710
:1007D0009927805A9E4FFC018081882F90E0A901C3
:1007E000481B590BCA019093050280930402809123
:1007F000FE019091FF012091040230910502B901A0
:1008000099D19093ED018093EC018AE490E02091DE
:10081000F0013091F101205A3E4FF9012081222F41
:1008200030E0A901440F551F440F551F2091EC01E2
:100830003091ED01240F351FFC0131832083DF91BE
:10084000CF91FF91EF919F918F917F916F915F91E8
:100850004F913F912F910F9000925F000F901F904A
:1008600018951F920F9200905F000F9211248F93A2
:100870009F93AF93BF93CF93DF93CDB7DEB78091B4
:10088000FA019091FB0101969093FB018093FA018C
:100890008091E2019091E301A091E401B091E50122
:1008A0000196A11DB11D8093E2019093E301A093F5
:1008B000E401B093E501DF91CF91BF91AF919F919A
:1008C0008F910F9000925F000F901F901895CF931B
:1008D000DF93CDB7DEB787E290E0FC01108286E2BD
:1008E00090E026E8FC01208383E290E0FC01108286
:1008F00081E290E027E0FC012083DF91CF91089511
:10090000CF93DF9300D000D0CDB7DEB79C838B832D
:1009100086E290E026E230E0F90120812F77FC01A9
:10092000208387E290E027E230E0F9012081322F36
:10093000307C2B81232BFC01208386E290E026E291
:1009400030E0F90120812068FC01208386E290E0FC
:1009500026E230E0F90120812064FC0120830000C0
:1009600086E290E0FC018081882F90E080749927D6
:100970000097B1F784E290E0FC018081882F90E03D
:100980009093F3018093F20185E290E0FC01808175
:10099000882F90E09093EF018093EE018091EE011B
:1009A0009091EF01382F22278091F2019091F3016D
:1009B000820F931F9A83898389819A818A30910556
:1009C00020F48AE090E09A83898389819A810F904C
:1009D0000F900F900F90DF91CF910895CF93DF93F9
:1009E00000D000D0CDB7DEB79A8389837C836B8338
:1009F0008AE390E02AE330E0F9012081277FFC01BF
:100A000020838BE390E02BE330E0F9012081277F06
:100A1000FC01208387E390E027E330E0F9012081A7
:100A20002460FC0120831092E2011092E3011092F5
:100A3000E4011092E50189819A81909301028093EB
:100A400000028B819C819093EB018093EA0107D097
:100A50000F900F900F900F90DF91CF910895CF934B
:100A6000DF93CDB7DEB785E590E023E0FC0120837E
:100A70008BE590E020E1FC01208382E390E028E018
:100A8000FC012083DF91CF9108951F920F92009077
:100A90005F000F9211242F933F938F939F93AF93F7
:100AA000BF93EF93FF93CF93DF93CDB7DEB78091E2
:100AB000E2019091E301A091E401B091E501883257
:100AC0009105A105B10530F18091EA019091EB010A
:100AD00021E030E0FC01318320832091000230913D
:100AE00001028091E2019091E301A091E401B091B3
:100AF000E501F90180839183A283B3831092FD0104
:100B00001092FC011092E2011092E3011092E401B4
:100B10001092E501DF91CF91FF91EF91BF91AF91DD
:100B20009F918F913F912F910F9000925F000F90B6
:100B30001F9018950024552704C0080E591F880FD0
:100B4000991F009729F076956795B8F37105B9F765
:100B5000802D952F0895AA1BBB1B51E107C0AA1F2A
:100B6000BB1FA617B70710F0A61BB70B881F991F4E
:100B70005A95A9F780959095BC01CD010895F894F8
:020B8000FFCFA5
:100B8200808386898C8F9295989B9EA1A4A7AAADFB
:100B9200B0B3B6B9BBBEC1C3C6C9CBCED0D2D5D70E
:100BA200D9DBDEE0E2E4E6E7E9EBECEEF0F1F2F4C9
:100BB200F5F6F7F8F9FAFBFBFCFDFDFEFEFEFEFE84
:100BC200FFFEFEFEFEFEFDFDFCFBFBFAF9F8F7F66A
:100BD200F5F4F2F1F0EEECEBE9E7E6E4E2E0DEDB7D
:100BE200D9D7D5D2D0CECBC9C6C3C1BEBBB9B6B395
:100BF200B0ADAAA7A4A19E9B9895928F8C8986835B
:100C0200807C797673706D6A6764615E5B58555259
:100C12004F4C494644413E3C393634312F2D2A2827
:100C22002624211F1D1B1918161413110F0E0D0B4C
:100C32000A09080706050404030202010101010171
:100C4200010101010101020203040405060708096A
:100C52000A0B0D0E0F1113141618191B1D1F212438
:100C620026282A2D2F313436393C3E414446494C00
:100C72004F5255585B5E6164676A6D707376797C1A
:100C82000000000000000000000202020202040450
:100C92000406060608080A0A0C0C0E10121416188E
:100CA2001A1C1E2024262B2F33373B3F454B52580C
:100CB2005E646C747D858F99A4B0BCC8D7E5F3FEE1
:100CC200FEF3E5D7C8BCB0A4998F857D746C645ED1
:100CD20058524B453F3B37332F2B2624201E1C1ADC
:100CE20018161412100E0C0C0A0A0808060606043E
:100CF20004040202020200000000000000000000E2
:00000001FF
