:1000000010C01FC01EC01DC01CC01BC01AC019C01C
:1000100018C0DBC016C015C014C013C012C011C078
:1000200010C011241FBECFE5D2E0DEBFCDBF20E05F
:10003000A0E6B0E001C01D92A636B207E1F702D0FB
:1000400098C1DECFCF93DF93CDB7DEB728970FB639
:10005000F894DEBF0FBECDBF86E490E020E8FC013F
:10006000208378942FD09E01295F3F4FCE010596C3
:10007000B9015CD0FED080E090E00FD125E034E003
:10008000A901481B590BCA019A83898389819A81E6
:1000900096958795969587959E838D8381E090E0D0
:1000A000FCD09C838B8382E090E0F7D00024880F03
:1000B000991F001C880F991F001C892F902D98876D
:1000C0008F83D9CFCF93DF93CDB7DEB78FE490E0A6
:1000D00023E8FC0120838EE490E029E0FC012083EA
:1000E0008AE390E02AE330E0F90120812064FC01FA
:1000F00020838AE490E02FEF31E0FC0131832083FC
:10010000DF91CF910895CF93DF9300D0CDB7DEB7C5
:100110009A8389838AE490E029813A81FC013183C2
:1001200020830F900F90DF91CF910895CF93DF93AD
:1001300000D000D0CDB7DEB79A8389837C836B83F0
:1001400080E590E0FC01108283E590E024E0FC0172
:10015000208387E390E027E330E0F90120812460E9
:10016000FC01208389819A819093610080936000D3
:100170008B819C8190936300809362001092650054
:100180001092640007D00F900F900F900F90DF91A6
:10019000CF910895CF93DF93CDB7DEB789E590E097
:1001A00029E530E0F90120812260FC01208386E509
:1001B00090E02091600030916100F901208131814F
:1001C000FC012083DF91CF9108951F920F92009040
:1001D0005F000F9211242F933F934F935F938F9360
:1001E0009F93EF93FF93CF93DF93CDB7DEB786E571
:1001F00090E026E530E0F9012081422F50E0209187
:10020000600030916100F90120813181240F351F98
:100210004091620050916300FA014081518102C017
:10022000369527954A95E2F7FC012083809164007A
:10023000909165000196937090936500809364009F
:100240008AE490E02091640030916500FC013183E4
:100250002083DF91CF91FF91EF919F918F915F91DB
:100260004F913F912F910F9000925F000F901F9040
:100270001895CF93DF93CDB7DEB787E290E0FC010E
:10028000108286E290E027E8FC01208383E290E080
:10029000FC011082DF91CF910895CF93DF93CDB70A
:1002A000DEB728970FB6F894DEBF0FBECDBF988794
:1002B0008F8386E290E026E230E0F90120812F77FB
:1002C000FC01208387E290E027E230E0F901208101
:1002D000322F307C2F81232BFC01208386E290E09B
:1002E00026E230E0F90120812068FC01208386E2CB
:1002F00090E026E230E0F90120812064FC012083B7
:10030000000086E290E0FC018081882F90E08074FC
:1003100099270097B1F784E290E0FC018081882F53
:1003200090E09C838B8385E290E0FC018081882FA4
:1003300090E09E838D838D819E81382F22278B8133
:100340009C81820F931F9A83898389819A8185304A
:10035000910520F485E090E09A83898389819A81D0
:1003600028960FB6F894DEBF0FBECDBFDF91CF91B8
:060370000895F894FFCF90
:00000001FF
