:1000000010C017C016C015C014C013C012C011C054
:1000100010C00FC00EC08BC00CC00BC00AC009C0FE
:1000200008C011241FBECFE5D2E0DEBFCDBF02D095
:1000300007C1E6CFCF93DF9300D000D000D0CDB77B
:10004000DEB786E490E020E8FC012083789416D0A7
:1000500049D05DD07ED080E090E08FD09A838983B4
:1000600081E090E08AD09C838B8382E090E085D011
:100070009E838D8389819A8122D0EDCFCF93DF93A8
:10008000CDB7DEB78FE490E023E8FC0120838EE457
:1000900090E029E0FC0120838AE390E02AE330E04D
:1000A000F90120812064FC0120838AE490E02FEF95
:1000B00031E0FC0131832083DF91CF910895CF930C
:1000C000DF9300D0CDB7DEB79A8389838AE490E0CE
:1000D00029813A81FC01318320830F900F90DF91B9
:1000E000CF910895CF93DF93CDB7DEB780E590E051
:1000F000FC01108283E590E024E0FC01208387E38B
:1001000090E024E0FC012083DF91CF910895CF930C
:10011000DF93CDB7DEB789E590E029E530E0F9015E
:1001200020812160FC012083DF91CF9108951F92EF
:100130000F9200905F000F921124CF93DF93CDB701
:10014000DEB7DF91CF910F9000925F000F901F906C
:100150001895CF93DF93CDB7DEB787E290E0FC012F
:10016000108286E290E027E8FC01208383E290E0A1
:10017000FC011082DF91CF910895CF93DF93CDB72B
:10018000DEB728970FB6F894DEBF0FBECDBF9887B5
:100190008F8386E290E026E230E0F90120812F771C
:1001A000FC01208387E290E027E230E0F901208122
:1001B000322F307C2F81232BFC01208386E290E0BC
:1001C00026E230E0F90120812068FC01208386E2EC
:1001D00090E026E230E0F90120812064FC012083D8
:1001E000000086E290E0FC018081882F90E080741E
:1001F00099270097B1F784E290E0FC018081882F75
:1002000090E09A83898385E290E0FC018081882FC9
:1002100090E09C838B838B819C81382F222789815E
:100220009A81822B932B9E838D838D819E8128962C
:100230000FB6F894DEBF0FBECDBFDF91CF9108950A
:04024000F894FFCF60
:00000001FF
