:1000000010C01FC01EC01DC01CC01BC01AC019C01C
:1000100018C0CDC016C03EC114C013C012C011C05C
:1000200010C011241FBECFE5D2E0DEBFCDBF20E05F
:10003000A0E6B0E001C01D92A037B207E1F702D000
:10004000CAC1DECFCF93DF9300D000D000D0CDB7B0
:10005000DEB786E490E020E8FC012083789427D086
:100060009E012B5F3F4FCE010396B90154D031D191
:1000700080E090E042D125E034E0A901481B590B13
:10008000CA019C838B8381E090E037D19A83898376
:1000900082E090E032D10024880F991F001C880F65
:1000A000991F001C892F902D9E838D83E1CFCF93C4
:1000B000DF93CDB7DEB78FE490E023E8FC01208327
:1000C0008EE490E029E0FC0120838AE390E02AE3BB
:1000D00030E0F90120812064FC0120838AE490E073
:1000E0002FEF31E0FC0131832083DF91CF91089520
:1000F000CF93DF9300D0CDB7DEB79A8389838AE4AC
:1001000090E029813A81FC01318320830F900F9088
:10011000DF91CF910895CF93DF9300D000D0CDB77A
:10012000DEB79A8389837C836B8380E590E0FC0152
:10013000108283E590E024E0FC01208387E390E0D7
:1001400027E330E0F90120812460FC0120838981CC
:100150009A8190936100809360008B819C81909341
:1001600065008093640010926900109268001092FC
:1001700067001092660007D00F900F900F900F90BD
:10018000DF91CF910895CF93DF93CDB7DEB789E5A7
:1001900090E029E530E0F90120812360FC01208313
:1001A00086E590E0FC011082DF91CF9108951F92C7
:1001B0000F9200905F000F9211242F933F934F9363
:1001C0008F939F93EF93FF93CF93DF93CDB7DEB7DA
:1001D0008091660090916700982F88279093630024
:1001E0008093620086E590E0FC018081282F30E05A
:1001F0008091620090916300820F931F90936B0037
:1002000080936A008091600090916100FC012081E0
:10021000318180916A0090916B008217930758F1A9
:10022000109267001092660086E590E026E530E0C7
:10023000F90140812091600030916100F901208135
:1002400031813695279536952795240FFC0120831B
:100250008091680090916900019693709093690075
:10026000809368008AE490E02091680030916900F2
:10027000FC0131832083DF91CF91FF91EF919F911A
:100280008F914F913F912F910F9000925F000F90AF
:100290001F9018951F920F9200905F000F921124EB
:1002A0008F939F93CF93DF93CDB7DEB78091660096
:1002B0009091670001969093670080936600DF91AC
:1002C000CF919F918F910F9000925F000F901F90A0
:1002D0001895CF93DF93CDB7DEB787E290E0FC01AE
:1002E000108286E290E027E8FC01208383E290E020
:1002F000FC011082DF91CF910895CF93DF9300D05E
:1003000000D0CDB7DEB79C838B8386E290E026E2F7
:1003100030E0F90120812F77FC01208387E290E013
:1003200027E230E0F9012081322F307C2B81232B12
:10033000FC01208386E290E026E230E0F901208192
:100340002068FC01208386E290E026E230E0F9019B
:1003500020812064FC012083000086E290E0FC0103
:100360008081882F90E0807499270097B1F784E20C
:1003700090E0FC018081882F90E090936F00809343
:100380006E0085E290E0FC018081882F90E09093E0
:100390006D0080936C0080916C0090916D00382FFF
:1003A000222780916E0090916F00820F931F9A8395
:1003B000898389819A818530910520F485E090E0D8
:1003C0009A83898389819A810F900F900F900F9063
:0A03D000DF91CF910895F894FFCF5C
:00000001FF
