:1000000010C01FC01EC01DC01CC01BC01AC019C01C
:1000100018C0C0C016C015C014C013C012C011C093
:1000200010C011241FBECFE5D2E0DEBFCDBF20E05F
:10003000A0E6B0E001C01D92A436B207E1F702D0FD
:100040007AC1DECFCF93DF93CDB7DEB728970FB657
:10005000F894DEBF0FBECDBF86E490E020E8FC013F
:100060002083789418D09E01295F3F4FCE010596DA
:10007000B90145D0E0D080E090E0F1D09E838D833F
:1000800081E090E0ECD09A83898382E090E0E7D031
:100090009C838B83F0CFCF93DF93CDB7DEB78FE414
:1000A00090E023E8FC0120838EE490E029E0FC014D
:1000B00020838AE390E02AE330E0F9012081206484
:1000C000FC0120838AE490E02FEF31E0FC013183D2
:1000D0002083DF91CF910895CF93DF9300D0CDB7E8
:1000E000DEB79A8389838AE490E029813A81FC0112
:1000F000318320830F900F90DF91CF910895CF939C
:10010000DF9300D000D0CDB7DEB79A8389837C839C
:100110006B8380E590E0FC01108283E590E024E0B1
:10012000FC01208387E390E027E330E0F9012081A0
:100130002460FC01208389819A81909361008093DF
:1001400060008B819C81909363008093620007D054
:100150000F900F900F900F90DF91CF910895CF9354
:10016000DF93CDB7DEB789E590E029E530E0F9010E
:1001700020812260FC01208386E590E020916000D0
:1001800030916100F90120813181FC012083DF91F0
:10019000CF9108951F920F9200905F000F9211244B
:1001A0002F933F934F938F939F93EF93FF93CF930F
:1001B000DF93CDB7DEB786E590E026E530E0F901C4
:1001C00040812091600030916100F90120813181EE
:1001D0003695279536952795240FFC01208380912D
:1001E0006200909163002091620030916300F901F8
:1001F000208131812F5F3F4F3370FC013183208399
:100200008AE490E02091620030916300F90120813E
:100210003181FC0131832083DF91CF91FF91EF91F8
:100220009F918F914F913F912F910F9000925F007E
:100230000F901F901895CF93DF93CDB7DEB787E26D
:1002400090E0FC01108286E290E027E8FC01208328
:1002500083E290E0FC011082DF91CF910895CF936B
:10026000DF93CDB7DEB728970FB6F894DEBF0FBE89
:10027000CDBF98878F8386E290E026E230E0F901D7
:1002800020812F77FC01208387E290E027E230E095
:10029000F9012081322F307C2F81232BFC01208318
:1002A00086E290E026E230E0F90120812068FC013E
:1002B000208386E290E026E230E0F901208120648C
:1002C000FC012083000086E290E0FC018081882F01
:1002D00090E0807499270097B1F784E290E0FC01E8
:1002E0008081882F90E09C838B8385E290E0FC01E5
:1002F0008081882F90E09E838D838D819E81382F11
:1003000022278B819C81820F931F9A838983898105
:100310009A818530910520F485E090E09A83898365
:1003200089819A8128960FB6F894DEBF0FBECDBFA3
:0A033000DF91CF910895F894FFCFFC
:00000001FF
