:1000000010C02AC075C528C027C026C025C024C07E
:1000100023C08CC221C056C41FC01EC01DC01CC03E
:100020001BC011241FBECFE5D2E0DEBFCDBF11E063
:10003000A0E6B0E0ECEFFBE002C005900D92A03628
:10004000B107D9F721E0A0E6B1E001C01D92AA38BE
:10005000B207E1F702D0D0C5D3CF8F929F92AF9273
:10006000BF92CF92DF92EF92FF920F931F93CF93A5
:10007000DF93CDB7DEB76C970FB6F894DEBF0FBE37
:10008000CDBF86E490E020E8FC0120837894D7D1AE
:100090009E012D5E3F4FCE010D96B90104D248D48A
:1000A0001A8E198EAE01475E5F4F9E012B5E3F4F49
:1000B000CE010F96B901C3D4188E1F8A1E8A1D8ADD
:1000C0001E821D8287E390E024E0FC01208388E308
:1000D00090E028E330E0F90120812B7FFC012083B0
:1000E00080E090E03ED498878F8381E090E039D41F
:1000F0009A87898782E090E034D49C878B8789E354
:1001000090E0FC018081882F90E08870992700970B
:10011000F1F08F859889A989BA8984369105A1055E
:10012000B105A8F01A8E198E8F859889A989BA8988
:1001300089839A83AB83BC839E01295E3F4FCE01A6
:100140004596A901BC0182E090E044D13FC089E31B
:1001500090E0FC0180818D899E898230910569F44F
:100160001A8E198E8F89988DAE01495E5F4F9E0160
:100170002B5E3F4FB9012ED129C089E390E0FC01ED
:100180008081898D9A8D009791F08D899E8982302A
:10019000910569F01A8E198E9E01295E3F4FCE019E
:1001A0004596A901BC0181E090E014D10FC08F8178
:1001B00098858A30910551F49E01295E3F4FCE010A
:1001C0004596A901BC0180E090E004D1CD84DE8495
:1001D000EF88F88C0D891E898F859889A989BA893D
:1001E00029813A814B815C816B857C85EF81F88523
:1001F000BE80BF92BD80BF92460157016801790160
:100200008A019C01AD01CF011BD00F900F909E87FA
:100210008D8789859A852DEC30E0B901D9D4CB0141
:100220009C8B8B8B8D819E8101969E838D838D818E
:100230009E818536910518F01E821D8251CF50CFC8
:100240008F929F92AF92BF92CF92DF92EF92FF92E6
:100250000F931F93CF93DF93CDB7DEB76C970FB695
:10026000F894DEBF0FBECDBF9C878B877E876D87DE
:100270002F87388B498B5A8BEB8AFC8A0D8B1E8B10
:10028000D88ECF8ABA8EA98E9C8E8B8E8F89988DB0
:100290008130910589F48F859889A989BA89B695A5
:1002A000A79597958795B695A795979587958983EF
:1002B0009A83AB83BC8343C08F89988D823091052C
:1002C000F9F48BA59CA583369105C8F18B8D9C8D87
:1002D0008B30910550F48B8D9C8DCC01A0E0B0E06B
:1002E00089839A83AB83BC832AC08B8D9C8D0197B5
:1002F000CC01A0E0B0E089839A83AB83BC831FC0AC
:100300008F89988D009791F42AE034E08B859C8545
:10031000A901481B590BCA0196958795CC01A0E00D
:10032000B0E089839A83AB83BC8309C08B8D9C8D9D
:10033000CC01A0E0B0E089839A83AB83BC838D8538
:100340009E85892F99279E838D8389819A818C7FB1
:1003500098878F838D819E818130910529F48F81CB
:1003600098859695879523C08D819E8182309105D1
:1003700081F42F813885C901880F991F820F931F3F
:100380009A87898789859A85969587959695879581
:100390000EC08D819E818330910539F48F819885BF
:1003A000969587959695879502C08F8198856C96CE
:1003B0000FB6F894DEBF0FBECDBFDF91CF911F9176
:1003C0000F91FF90EF90DF90CF90BF90AF909F90F4
:1003D0008F900895CF93DF93CDB7DEB728970FB6F0
:1003E000F894DEBF0FBECDBF9C838B837E836D836D
:1003F00058874F838D819E81FC01808191819A83F2
:1004000089832B813C8189819A812817390771F072
:100410008F81988529813A81FC01318320838D81E8
:100420009E812B813C81FC013183208328960FB66D
:10043000F894DEBF0FBECDBFDF91CF910895CF936B
:10044000DF93CDB7DEB78FE490E023E8FC01208393
:100450008EE490E029E0FC0120838AE390E02AE327
:1004600030E0F90120812064FC0120838AE490E0DF
:100470002FEF31E0FC0131832083DF91CF9108958C
:10048000CF93DF9300D0CDB7DEB79A8389838AE418
:1004900090E029813A81FC01318320830F900F90F5
:1004A000DF91CF910895CF93DF9300D000D0CDB7E7
:1004B000DEB79A8389837C836B8380E590E0FC01BF
:1004C000108283E590E024E0FC01208389819A81F9
:1004D00090937901809378018B819C8190937B012B
:1004E00080937A0110927F0110927E0110927D011B
:1004F00010927C0107D00F900F900F900F90DF911A
:10050000CF910895CF93DF93CDB7DEB789E590E023
:1005100029E530E0F90120812360FC01208386E594
:1005200090E0FC011082DF91CF9108951F920F920D
:1005300000905F000F9211242F933F934F935F938E
:100540006F937F938F939F93EF93FF93CF93DF935B
:10055000CDB7DEB78091780190917901FC0180815F
:100560009181909385018093840180917C01909189
:100570007D01982F8827909369018093680186E513
:1005800090E0FC018081282F30E0809168019091FB
:100590006901820F931F90938901809388012091B4
:1005A00088013091890180918401909185012817FB
:1005B000390708F475C110927D0110927C0186E51F
:1005C00090E026E530E0F9014081209184013091EE
:1005D0008501240FFC01208380917E0190917F0191
:1005E0000196937090937F0180937E0180917A01B0
:1005F00090917B01FC0180819181909361018093B6
:1006000060018091600190916101009751F48AE44A
:1006100090E020917E0130917F01FC0131832083A5
:100620003FC180916001909161018130910539F560
:1006300080917E0190917F018115F2E09F0760F427
:100640008AE490E020917E0130917F01220F331FD8
:10065000FC013183208324C18AE490E020917E0153
:1006600030917F013250220F331F4FEF53E0BA0118
:10067000621B730B9B01FC013183208311C18091AC
:1006800060019091610182309105B1F480917E0109
:1006900090917F018115F2E09F0730F48AE490E0A9
:1006A000FC0111821082FCC08AE490E02FEF33E05D
:1006B000FC0131832083F4C080917E0190917F0101
:1006C00083709927909373018093720180917E01CA
:1006D00090917F0196958795969587959093770150
:1006E0008093760180916001909161018430910541
:1006F00009F047C080917601909177010196992782
:10070000805A9F4FFC018081282F30E08091760134
:1007100090917701805A9F4FFC018081882F90E053
:10072000A901481B590BCA01909387018093860148
:10073000809172019091730120918601309187011F
:10074000B90135D290936D0180936C018AE490E0F9
:100750002091760130917701205A3F4FF901208195
:10076000222F30E0A901440F551F440F551F20913F
:100770006C0130916D01240F351FFC013183208302
:100780008FC080916001909161018330910509F0E3
:1007900087C08091760190917701880F991F9927E2
:1007A000805A9F4FFC018081882F90E0880F991F0D
:1007B0009093670180936601809176019091770113
:1007C0000196880F991F9927805A9F4FFC018081BD
:1007D000882F90E0880F991F90938101809380016A
:1007E00080917601909177018115F1E09F0761F486
:1007F00080916601909167019195819591099093FF
:100800006701809366011DC0809176019091770108
:1008100081389105B0F080916601909167019195C2
:100820008195910990936701809366018091800181
:100830009091810191958195910990938101809387
:100840008001209180013091810180916601909119
:100850006701A901481B590BCA0190938701809336
:1008600086018091720190917301209186013091EF
:100870008701B9019CD190936D0180936C018AE44A
:1008800090E0409166015091670120916C01309198
:100890006D01240F351F21503E4FFC013183208311
:1008A000DF91CF91FF91EF919F918F917F916F9108
:1008B0005F914F913F912F910F9000925F000F90A9
:1008C0001F9018951F920F9200905F000F921124B5
:1008D0008F939F93AF93BF93CF93DF93CDB7DEB743
:1008E00080917C0190917D01019690937D01809390
:1008F0007C018091620190916301A0916401B091AB
:1009000065010196A11DB11D809362019093630161
:10091000A0936401B0936501DF91CF91BF91AF9136
:100920009F918F910F9000925F000F901F901895EC
:10093000CF93DF93CDB7DEB787E290E0FC01108262
:1009400086E290E026E8FC01208383E290E0FC014F
:10095000108281E290E027E0FC012083DF91CF91BB
:100960000895CF93DF9300D000D0CDB7DEB79C833E
:100970008B8386E290E026E230E0F90120812F7738
:10098000FC01208387E290E027E230E0F90120813A
:10099000322F307C2B81232BFC01208386E290E0D8
:1009A00026E230E0F90120812068FC01208386E204
:1009B00090E026E230E0F90120812064FC012083F0
:1009C000000086E290E0FC018081882F90E0807436
:1009D00099270097B1F784E290E0FC018081882F8D
:1009E00090E0909375018093740185E290E0FC01A2
:1009F0008081882F90E090937101809370018091A5
:100A0000700190917101382F22278091740190918B
:100A10007501820F931F9A83898389819A818A3015
:100A2000910520F48AE090E09A83898389819A81F4
:100A30000F900F900F900F90DF91CF910895CF936B
:100A4000DF9300D000D000D0CDB7DEB79A83898382
:100A50007C836B835E834D838AE390E02AE330E0FE
:100A6000F9012081277FFC0120838BE390E02BE3B9
:100A700030E0F9012081277FFC0120831092620180
:100A800010926301109264011092650189819A812C
:100A900090938301809382018B819C8190936B0161
:100AA00080936A018D819E8190936F0180936E0186
:100AB00009D026960FB6F894DEBF0FBECDBFDF91EA
:100AC000CF910895CF93DF93CDB7DEB785E590E062
:100AD00023E0FC0120838BE590E020E1FC012083F2
:100AE00082E390E028E0FC012083DF91CF9108951C
:100AF0001F920F9200905F000F9211242F933F934B
:100B00008F939F93AF93BF93EF93FF93CF93DF9315
:100B1000CDB7DEB78091620190916301A09164012D
:100B2000B091650188329105A105B10580F18091F0
:100B30006E0190916F0121E030E0FC013183208350
:100B400080916A0190916B01FC01808191818130DB
:100B5000910589F420918201309183018091620195
:100B600090916301A0916401B0916501F9018083C6
:100B70009183A283B38310927F0110927E01109221
:100B80006201109263011092640110926501DF917D
:100B9000CF91FF91EF91BF91AF919F918F913F9135
:100BA0002F910F9000925F000F901F9018950024D6
:100BB000552704C0080E591F880F991F009729F068
:100BC00076956795B8F37105B9F7802D952F08953F
:100BD000AA1BBB1B51E107C0AA1FBB1FA617B70763
:100BE00010F0A61BB70B881F991F5A95A9F780957F
:0C0BF0009095BC01CD010895F894FFCF52
:100BFC000306090C0F1215181B1E2124272A2D3051
:100C0C003336393C3F4245484B4E5154575A5C5F42
:100C1C006265686B6D707376787B7E808386888B5B
:100C2C008D909295979A9C9FA1A3A6A8AAADAFB1BF
:100C3C00B3B5B8BABCBEC0C2C4C6C8C9CBCDCFD17F
:100C4C00D2D4D6D7D9DADCDEDFE0E2E3E4E6E7E8BB
:100C5C00E9EBECEDEEEFF0F1F2F3F3F4F5F6F6F779
:100C6C00F8F8F9F9FAFAFBFBFBFCFCFCFCFCFCFCCD
:100C7C00FDFCFCFCFCFCFCFCFBFBFBFAFAF9F9F8B8
:100C8C00F8F7F6F6F5F4F3F3F2F1F0EFEEEDECEB3A
:100C9C00E9E8E7E6E4E3E2E0DFDEDCDAD9D7D6D454
:100CAC00D2D1CFCDCBC9C8C6C4C2C0BEBCBAB8B5F0
:100CBC00B3B1AFADAAA8A6A3A19F9C9A9795929009
:100CCC008D8B888683807E7B787673706D6B686580
:100CDC00625F5C5A5754514E4B4845423F3C393643
:100CEC0033302D2A2724211E1B1815120F0C090630
:00000001FF
