:1000000010C02AC0FBC428C027C026C025C024C0F9
:1000100023C01EC221C0E7C31FC01EC01DC01CC01C
:100020001BC011241FBECFE5D2E0DEBFCDBF11E063
:10003000A0E6B0E0E2EEFAE002C005900D92A03634
:10004000B107D9F721E0A0E6B1E001C01D92A838C0
:10005000B207E1F702D043C5D3CFCF92DF92EF9240
:10006000FF920F931F93CF93DF93CDB7DEB76497C3
:100070000FB6F894DEBF0FBECDBF86E490E020E857
:10008000FC01208378946DD19E01215F3F4FCE010A
:100090000996B9019AD1DDD39E012F5E3F4FCE0163
:1000A0000B96B9015DD41A8A198A1A82198287E3DC
:1000B00090E024E0FC01208388E390E028E330E036
:1000C000F90120812B7FFC01208380E090E0DAD3CE
:1000D0009C838B8381E090E0D5D39E838D8382E0E7
:1000E00090E0D0D398878F8389E390E0FC018081F2
:1000F000882F90E088709927009791F08091620195
:1001000090916301A0916401B091650184369105DD
:10011000A105B10528F082E090E09A8B898B19C087
:100120008091620190916301A0916401B091650199
:1001300089329105A105B10528F481E090E09A8B00
:10014000898B07C08B819C818A30910511F41A8AB2
:10015000198A49855A8529893A898B859C85AD8577
:10016000BE8509811A816F817885EB81FC816801E8
:100170007A0189019C01AD01CF0119D09A87898745
:100180008D819E812DEC30E0B90195D4CB01988B07
:100190008F8789819A8101969A83898389819A813F
:1001A0008536910518F01A8219828FCF8ECFCF92A3
:1001B000DF92EF92FF920F931F93CF93DF93CDB710
:1001C000DEB768970FB6F894DEBF0FBECDBF9C8731
:1001D0008B877E876D872F87388B498B5A8B1C8B3B
:1001E0000B8BFE8AED8AD88ECF8A8B899C898130D1
:1001F0009105D1F48F859889A989BA89B695A79573
:1002000097958795B695A7959795879589839A83AE
:10021000AB83BC8388E390E028E330E0F9012081E0
:100220002B7FFC01208356C08B899C8982309105ED
:1002300091F58F89988D8336910508F44BC08D898F
:100240009E898B30910598F488E390E028E330E0B4
:10025000F90120812B7FFC0120838D899E89CC01AF
:10026000A0E0B0E089839A83AB83BC8333C088E38A
:1002700090E028E330E0F90120812460FC01208334
:100280008D899E890197CC01A0E0B0E089839A8393
:10029000AB83BC831FC08B899C89009791F42AE0B3
:1002A00034E08B859C85A901481B590BCA019695A2
:1002B0008795CC01A0E0B0E089839A83AB83BC83AF
:1002C00009C08D899E89CC01A0E0B0E089839A8322
:1002D000AB83BC838D859E85892F99279E838D83D3
:1002E00089819A818C7F98878F838D819E818130CF
:1002F000910529F48F8198859695879523C08D81E6
:100300009E818230910581F42F813885C901880F43
:10031000991F820F931F9A87898789859A85969559
:100320008795969587950EC08D819E818330910526
:1003300039F48F819885969587959695879502C013
:100340008F81988568960FB6F894DEBF0FBECDBF3B
:10035000DF91CF911F910F91FF90EF90DF90CF90A1
:100360000895CF93DF93CDB7DEB78FE490E023E815
:10037000FC0120838EE490E029E0FC0120838AE3E5
:1003800090E02AE330E0F90120812064FC01208321
:100390008AE490E02FEF31E0FC0131832083DF918C
:1003A000CF910895CF93DF9300D0CDB7DEB79A8376
:1003B00089838AE490E029813A81FC01318320839A
:1003C0000F900F90DF91CF910895CF93DF9300D0DE
:1003D00000D0CDB7DEB79A8389837C836B8380E5B9
:1003E00090E0FC01108283E590E024E0FC01208392
:1003F00089819A8190937701809376018B819C818A
:10040000909379018093780110927D0110927C0184
:1004100010927B0110927A0107D00F900F900F90ED
:100420000F90DF91CF910895CF93DF93CDB7DEB7D3
:1004300089E590E029E530E0F90120812360FC01A5
:10044000208386E590E0FC011082DF91CF91089532
:100450001F920F9200905F000F9211242F933F93F1
:100460004F935F936F937F938F939F93EF93FF933C
:10047000CF93DF93CDB7DEB780917601909177016E
:10048000FC0180819181909383018093820180910E
:100490007A0190917B01982F88279093690180932E
:1004A000680186E590E0FC018081282F30E0809192
:1004B000680190916901820F931F90938701809347
:1004C000860120918601309187018091820190916F
:1004D00083012817390708F474C110927B01109228
:1004E0007A0186E590E026E530E0F901408120912F
:1004F000820130918301240FFC01208380917C01D3
:1005000090917D010196937090937D0180937C0181
:100510008091780190917901FC0180819181909383
:100520006101809360018091600190916101009769
:1005300051F48AE490E020917C0130917D01FC012E
:10054000318320833EC180916001909161018130AF
:10055000910539F580917C0190917D018115F2E042
:100560009F0760F48AE490E020917C0130917D0146
:10057000220F331FFC013183208323C18AE490E0E2
:1005800020917C0130917D013250220F331F4FEFBB
:1005900053E0BA01621B730B9B01FC013183208382
:1005A00010C1809160019091610182309105B1F498
:1005B00080917C0190917D018115F2E09F0730F4DC
:1005C0008AE490E0FC0111821082FBC08AE490E092
:1005D0002FEF33E0FC0131832083F3C080917C0155
:1005E00090917D01837099279093710180937001A0
:1005F00080917C0190917D01969587959695879540
:1006000090937501809374018091600190916101D4
:100610008430910509F047C0809174019091750173
:1006200001969927805A9F4FFC018081282F30E046
:100630008091740190917501805A9F4FFC018081D7
:10064000882F90E0A901481B590BCA01909385019E
:1006500080938401809170019091710120918401B7
:1006600030918501B90116D290936D0180936C0190
:100670008AE490E02091740130917501205A3F4F37
:10068000F9012081222F30E0A901440F551F440FAA
:10069000551F20916C0130916D01240F351FFC0115
:1006A000318320838EC080916001909161018330FD
:1006B000910509F086C08091740190917501880FB1
:1006C000991F9927805A9F4FFC018081882F90E0C5
:1006D000880F991F90936701809366018091740140
:1006E000909175010196880F991F9927805A9F4F05
:1006F000FC018081882F90E0880F991F90937F01E3
:1007000080937E0180917401909175018115F1E0D3
:100710009F0761F4809166019091670191958195A1
:10072000910990936701809366011DC080917401C7
:100730009091750181389105B0F08091660190919A
:100740006701919581959109909367018093660166
:1007500080917E0190917F0191958195910990936F
:100760007F0180937E0120917E0130917F018091F5
:10077000660190916701A901481B590BCA0190932A
:100780008501809384018091700190917101209185
:10079000840130918501B9017DD190936D018093E1
:1007A0006C018AE490E040916601509167012091CC
:1007B0006C0130916D01240F351F3E5FFC013183C8
:1007C0002083DF91CF91FF91EF919F918F917F9146
:1007D0006F915F914F913F912F910F9000925F0029
:1007E0000F901F9018951F920F9200905F000F922C
:1007F00011248F939F93AF93BF93CF93DF93CDB784
:10080000DEB780917A0190917B01019690937B01F4
:1008100080937A018091620190916301A0916401BB
:10082000B09165010196A11DB11D80936201909365
:100830006301A0936401B0936501DF91CF91BF91F3
:10084000AF919F918F910F9000925F000F901F903A
:100850001895CF93DF93CDB7DEB787E290E0FC0128
:10086000108286E290E026E8FC01208383E290E09B
:10087000FC01108281E290E027E0FC012083DF91FF
:10088000CF910895CF93DF9300D000D0CDB7DEB7DE
:100890009C838B8386E290E026E230E0F9012081A0
:1008A0002F77FC01208387E290E027E230E0F90116
:1008B0002081322F307C2B81232BFC01208386E288
:1008C00090E026E230E0F90120812068FC012083DD
:1008D00086E290E026E230E0F90120812064FC010C
:1008E0002083000086E290E0FC018081882F90E068
:1008F000807499270097B1F784E290E0FC01808131
:10090000882F90E0909373018093720185E290E0CC
:10091000FC018081882F90E090936F0180936E019D
:1009200080916E0190916F01382F22278091720182
:1009300090917301820F931F9A83898389819A8191
:100940008A30910520F48AE090E09A838983898136
:100950009A810F900F900F900F90DF91CF91089593
:10096000CF93DF9300D000D0CDB7DEB79A838983D1
:100970007C836B838AE390E02AE330E0F9012081F5
:10098000277FFC0120838BE390E02BE330E0F9012B
:100990002081277FFC012083109262011092630165
:1009A000109264011092650189819A81909381016E
:1009B000809380018B819C8190936B0180936A016D
:1009C00007D00F900F900F900F90DF91CF91089567
:1009D000CF93DF93CDB7DEB785E590E023E0FC0150
:1009E00020838BE590E020E1FC01208382E390E00E
:1009F00028E0FC012083DF91CF9108951F920F9290
:100A000000905F000F9211242F933F938F939F9339
:100A1000AF93BF93EF93FF93CF93DF93CDB7DEB741
:100A20008091620190916301A0916401B091650190
:100A300088329105A105B105E8F02091800130913F
:100A400081018091620190916301A0916401B09154
:100A50006501F90180839183A283B38310927D01A4
:100A600010927C0110926201109263011092640155
:100A700010926501DF91CF91FF91EF91BF91AF91FE
:100A80009F918F913F912F910F9000925F000F9057
:100A90001F9018950024552704C0080E591F880F71
:100AA000991F009729F076956795B8F37105B9F706
:100AB000802D952F0895AA1BBB1B51E107C0AA1FCB
:100AC000BB1FA617B70710F0A61BB70B881F991FEF
:100AD0005A95A9F780959095BC01CD010895F89499
:020AE000FFCF46
:100AE200000306090C0F1215181C1F2225282B2E95
:100AF2003134373A3D4044474A4D4F5255585B5E78
:100B02006164676A6D6F7275787A7D808385888B80
:100B12008D909295979A9C9FA1A4A6A8ABADAFB2D7
:100B2200B4B6B8BABCBFC1C3C5C7C9CACCCED0D28D
:100B3200D4D5D7D9DADCDDDFE0E2E3E5E6E7E9EABE
:100B4200EBECEDEFF0F1F2F3F4F4F5F6F7F8F8F977
:100B5200FAFAFBFBFCFCFDFDFDFEFEFEFEFEFEFEC8
:100B6200FFFEFEFEFEFEFEFEFDFDFDFCFCFBFBFAB3
:100B7200FAF9F8F8F7F6F5F4F4F3F2F1F0EFEDEC38
:100B8200EBEAE9E7E6E5E3E2E0DFDDDCDAD9D7D557
:100B9200D4D2D0CECCCAC9C7C5C3C1BFBCBAB8B6FD
:100BA200B4B2AFADABA8A6A4A19F9C9A9795929020
:100BB2008D8B888583807D7A7875726F6D6A6764A4
:100BC200615E5B5855524F4D4A4744403D3A373477
:100BD200312E2B2825221F1C1815120F0C09060373
:00000001FF
