:1000000010C017C016C015C014C013C012C011C054
:1000100010C00FC00EC08AC00CC00BC00AC009C0FF
:1000200008C011241FBECFE5D2E0DEBFCDBF02D095
:10003000C3C0E6CFCF93DF9300D0CDB7DEB786E461
:1000400090E020E8FC01208378940ED041D05ED06F
:100050008AE490E0FC018081918101962FEF33E0EA
:10006000B90196D022D0F4CFCF93DF93CDB7DEB7CE
:100070008FE490E023E8FC0120838EE490E029E007
:10008000FC0120838AE390E02AE330E0F90120813B
:100090002064FC0120838AE490E02FEF31E0FC0132
:1000A00031832083DF91CF910895CF93DF9300D0E8
:1000B000CDB7DEB79A8389838AE490E029813A81BB
:1000C000FC01318320830F900F90DF91CF91089531
:1000D000CF93DF93CDB7DEB780E590E0FC011082CF
:1000E00083E590E024E0FC0120838AE390E02AE3AA
:1000F00030E0F90120812160FC01208387E390E05A
:1001000024E0FC012083DF91CF910895CF93DF930A
:10011000CDB7DEB789E590E029E530E0F90120812F
:100120002160FC012083DF91CF9108951F920F92EF
:1001300000905F000F9211242F933F934F938F9362
:100140009F93EF93FF93CF93DF93CDB7DEB78BE30E
:1001500090E02BE330E0F9012081222F30E0217084
:10016000332741E02115310509F040E0242FFC013F
:100170002083DF91CF91FF91EF919F918F914F91CC
:100180003F912F910F9000925F000F901F90189554
:10019000AA1BBB1B51E107C0AA1FBB1FA617B707AD
:1001A00010F0A61BB70B881F991F5A95A9F78095C9
:0C01B0009095BC01CD010895F894FFCF9C
:00000001FF
