:1000000010C01FC01EC01DC01CC01BC01AC019C01C
:1000100018C024C116C096C114C013C012C011C0AC
:1000200010C011241FBECFE5D2E0DEBFCDBF20E05F
:10003000A0E6B0E001C01D92A237B207E1F702D0FE
:1000400022C2DECFCF93DF93CDB7DEB728970FB6AE
:10005000F894DEBF0FBECDBF86E490E020E8FC013F
:10006000208378947BD09E012B5F3F4FCE01079673
:10007000B901A8D086D180E090E097D19A83898396
:1000800081E090E092D19C838B8382E090E08DD1DF
:100090009E838D832D813E8189819A81B90103D010
:1000A00098878F83E8CFCF93DF93CDB7DEB72C97B8
:1000B0000FB6F894DEBF0FBECDBF9A8789877C87C5
:1000C0006B872AE034E089859A85A901481B590B82
:1000D000CA01969587959A8389838B859C85892FFC
:1000E00099279C838B8389819A818C7F9E838D83C2
:1000F0008B819C818130910529F48D819E8196951B
:10010000879523C08B819C818230910581F42D815C
:100110003E81C901880F991F820F931F98878F8393
:100120008F81988596958795969587950EC08B813A
:100130009C818330910539F48D819E8196958795B8
:100140009695879502C08D819E812C960FB6F89466
:10015000DEBF0FBECDBFDF91CF910895CF93DF9368
:10016000CDB7DEB78FE490E023E8FC0120838EE476
:1001700090E029E0FC0120838AE390E02AE330E06C
:10018000F90120812064FC0120838AE490E02FEFB4
:1001900031E0FC0131832083DF91CF910895CF932B
:1001A000DF9300D0CDB7DEB79A8389838AE490E0ED
:1001B00029813A81FC01318320830F900F90DF91D8
:1001C000CF910895CF93DF9300D000D0CDB7DEB7A5
:1001D0009A8389837C836B8380E590E0FC011082A5
:1001E00083E590E024E0FC01208387E390E027E3AF
:1001F00030E0F90120812460FC01208389819A810B
:1002000090936700809366008B819C819093690036
:100210008093680010926D0010926C0010926B0039
:1002200010926A0007D00F900F900F900F90DF91FF
:10023000CF910895CF93DF93CDB7DEB789E590E0F6
:1002400029E530E0F90120812360FC01208386E567
:1002500090E0FC011082DF91CF9108951F920F92E0
:1002600000905F000F9211242F933F934F938F9331
:100270009F93EF93FF93CF93DF93CDB7DEB780913A
:10028000660090916700FC018081918190936F00DE
:1002900080936E0080916A0090916B00982F882760
:1002A000909361008093600086E590E0FC0180817E
:1002B000282F30E08091600090916100820F931FA1
:1002C00090937100809370002091700030917100C4
:1002D00080916E0090916F002817390720F11092DD
:1002E0006B0010926A0086E590E026E530E0F901A7
:1002F000408120916E0030916F00240FFC0120831B
:1003000080916C0090916D000196937090936D00B8
:1003100080936C008AE490E020916C0030916D0035
:10032000FC0131832083DF91CF91FF91EF919F9169
:100330008F914F913F912F910F9000925F000F90FE
:100340001F9018951F920F9200905F000F9211243A
:100350008F939F93CF93DF93CDB7DEB780916A00E1
:1003600090916B00019690936B0080936A00DF91EF
:10037000CF919F918F910F9000925F000F901F90EF
:100380001895CF93DF93CDB7DEB787E290E0FC01FD
:10039000108286E290E027E8FC01208383E290E06F
:1003A000FC011082DF91CF910895CF93DF9300D0AD
:1003B00000D0CDB7DEB79C838B8386E290E026E247
:1003C00030E0F90120812F77FC01208387E290E063
:1003D00027E230E0F9012081322F307C2B81232B62
:1003E000FC01208386E290E026E230E0F9012081E2
:1003F0002068FC01208386E290E026E230E0F901EB
:1004000020812064FC012083000086E290E0FC0152
:100410008081882F90E0807499270097B1F784E25B
:1004200090E0FC018081882F90E09093650080939C
:10043000640085E290E0FC018081882F90E0909339
:100440006300809362008091620090916300382F76
:1004500022278091640090916500820F931F9A83F8
:10046000898389819A818530910520F485E090E027
:100470009A83898389819A810F900F900F900F90B2
:0A048000DF91CF910895F894FFCFAB
:00000001FF
