:1000000010C02AC0F8C328C027C026C025C024C0FD
:1000100023C040C121C0FDC21FC01EC01DC01CC0E6
:100020001BC011241FBECFE5D2E0DEBFCDBF11E063
:10003000A0E6B0E0E4EEF8E002C005900D92A03E2C
:10004000B107D9F722E0A0EEB1E001C01D92A430C3
:10005000B207E1F702D044C4D3CFCF93DF93CDB73B
:10006000DEB760970FB6F894DEBF0FBECDBF86E453
:1000700090E020E8FC012083789495D09E01235FD6
:100080003F4FCE010796B901C2D0EBD2CE010996FF
:100090006AD380E090E0F9D29A83898381E090E08E
:1000A000F4D29C838B8382E090E0EFD29E838D8399
:1000B00089859A85AB85BC856D817E81E981FA81D0
:1000C0009C01AD01CF010CD098878F838B819C81DF
:1000D00022E930E0B901F0D3CB019E878D87D9CFDB
:1000E000CF93DF93CDB7DEB762970FB6F894DEBF3C
:1000F0000FBECDBF9C878B877E876D872F87388B00
:10010000498B5A8B8F859889A989BA89B695A79505
:1001100097958795B695A7959795879589839A839F
:10012000AB83BC838D859E85892F99279E838D8384
:1001300089819A818C7F98878F838D819E81813080
:10014000910529F48F8198859695879523C08D8197
:100150009E818230910581F42F813885C901880FF5
:10016000991F820F931F9A87898789859A8596950B
:100170008795969587950EC08D819E8183309105D8
:1001800039F48F819885969587959695879502C0C5
:100190008F81988562960FB6F894DEBF0FBECDBFF3
:1001A000DF91CF910895CF93DF93CDB7DEB78FE482
:1001B00090E023E8FC0120838EE490E029E0FC013C
:1001C00020838AE390E02AE330E0F9012081206473
:1001D000FC0120838AE490E02FEF31E0FC013183C1
:1001E0002083DF91CF910895CF93DF9300D0CDB7D7
:1001F000DEB79A8389838AE490E029813A81FC0101
:10020000318320830F900F90DF91CF910895CF938A
:10021000DF9300D000D0CDB7DEB79A8389837C838B
:100220006B8380E590E0FC01108283E590E024E0A0
:10023000FC01208389819A819093EB018093EA01EC
:100240008B819C819093ED018093EC011092F101E0
:100250001092F0011092EF011092EE0107D00F9072
:100260000F900F900F90DF91CF910895CF93DF9370
:10027000CDB7DEB789E590E029E530E0F9012081CE
:100280002360FC01208386E590E0FC011082DF9171
:10029000CF9108951F920F9200905F000F9211244A
:1002A0002F933F934F935F936F937F938F939F937E
:1002B000EF93FF93CF93DF93CDB7DEB78091EA0141
:1002C0009091EB01FC01808191819093F5018093E5
:1002D000F4018091EE019091EF01982F882790937F
:1002E000E5018093E40186E590E0FC018081282F00
:1002F00030E08091E4019091E501820F931F90938B
:10030000F7018093F6012091F6013091F701809179
:10031000F4019091F5012817390708F468C110928B
:10032000EF011092EE0186E590E026E530E0F9015C
:1003300040812091F4013091F501240FFC012083CC
:100340008091F0019091F101019693709093F101E9
:100350008093F0018091EC019091ED01FC0180818E
:1003600091819093E1018093E0018091E00190916F
:10037000E101009751F48AE490E02091F00130917E
:10038000F101FC013183208332C18091E001909121
:10039000E1018130910581F48AE490E02091F0013F
:1003A0003091F10140E054E0BA01621B730B9B01F4
:1003B000FC01318320831BC18091E0019091E10118
:1003C0008230910529F58091F0019091F10181151C
:1003D000F2E09F0760F48AE490E02091F001309110
:1003E000F101220F331FFC013183208300C12AE475
:1003F00030E04091F0015091F10180E090E0841BE9
:10040000950B880F991F985FF90191838083EFC046
:100410008091E0019091E10183309105B1F48091E8
:10042000F0019091F1018115F2E09F0730F48AE428
:1004300090E0FC0111821082DAC08AE490E02FEF94
:1004400033E0FC0131832083D2C01092F901109275
:10045000F80110920102109200028091F001909137
:10046000F10196958795969587959093FF018093D6
:10047000FE018091F0019091F101969587959695F6
:100480008795969587959093FD018093FC018091C7
:10049000E0019091E1018430910509F048C080911C
:1004A000FE019091FF01805A9F4FFC018081282F0F
:1004B00030E08091FE019091FF0101969927805ACA
:1004C0009F4FFC018081882F90E0A901481B590BA8
:1004D000CA0190930302809302028091F8019091E7
:1004E000F9012091020230910302B901D4D1909315
:1004F000FB018093FA018AE490E02091FE013091A3
:10050000FF01205A3F4FF9012081222F30E0409116
:10051000FA015091FB014E5F5F4F042E02C0220F83
:10052000331F0A94E2F7FC013183208360C080917D
:10053000E0019091E1018530910551F48AE490E069
:100540002091F0013091F101FC01318320834FC0F3
:100550008091E0019091E1018730910509F047C059
:100560008091FC019091FD01805A9E4FFC01808199
:10057000282F30E08091FC019091FD0101968F774A
:100580009927805A9E4FFC018081882F90E0A90115
:10059000481B590BCA019093030280930202809179
:1005A0000002909101022091020230910302B901F0
:1005B00072D19093FB018093FA018AE490E020913C
:1005C000FC013091FD01205A3E4FF9012081222F7C
:1005D00030E0A901440F551F440F551F2091FA0127
:1005E0003091FB01240F351FFC0131832083DF9103
:1005F000CF91FF91EF919F918F917F916F915F913B
:100600004F913F912F910F9000925F000F901F909C
:1006100018951F920F9200905F000F9211248F93F4
:100620009F93CF93DF93CDB7DEB78091EE0190918A
:10063000EF0101969093EF018093EE018091E2012A
:100640009091E30101969093E3018093E201DF91A1
:10065000CF919F918F910F9000925F000F901F900C
:100660001895CF93DF93CDB7DEB787E290E0FC011A
:10067000108286E290E027E8FC01208383E290E08C
:10068000FC011082DF91CF910895CF93DF9300D0CA
:1006900000D0CDB7DEB79C838B8386E290E026E264
:1006A00030E0F90120812F77FC01208387E290E080
:1006B00027E230E0F9012081322F307C2B81232B7F
:1006C000FC01208386E290E026E230E0F9012081FF
:1006D0002068FC01208386E290E026E230E0F90108
:1006E00020812064FC012083000086E290E0FC0170
:1006F0008081882F90E0807499270097B1F784E279
:1007000090E0FC018081882F90E09093E901809334
:10071000E80185E290E0FC018081882F90E09093D1
:10072000E7018093E6018091E6019091E701382F7F
:1007300022278091E8019091E901820F931F9A830B
:10074000898389819A818A30910520F48AE090E03A
:100750009A83898389819A810F900F900F900F90CF
:10076000DF91CF910895CF93DF9300D0CDB7DEB75F
:100770009A8389838AE390E02AE330E0F9012081BB
:10078000277FFC0120838BE390E02BE330E0F9012D
:1007900020812860FC01208387E390E027E330E09C
:1007A000F90120812460FC0120831092E301109262
:1007B000E20189819A819093F3018093F20105D03F
:1007C0000F900F90DF91CF910895CF93DF93CDB726
:1007D000DEB785E590E022E0FC0120838BE590E028
:1007E00020E1FC01208382E390E028E0FC012083EB
:1007F000DF91CF9108951F920F9200905F000F92AA
:1008000011242F933F938F939F93AF93BF93EF93B5
:10081000FF93CF93DF93CDB7DEB78091E201909144
:10082000E3018832910538F188E390E028E330E075
:10083000F9012081322F3695369521E02327220FAA
:10084000220FFC0120832091F2013091F30180916D
:10085000E2019091E301CC01A0E0B0E0F9018083D6
:100860009183A283B3831092F1011092F001109250
:10087000E3011092E201DF91CF91FF91EF91BF91DF
:10088000AF919F918F913F912F910F9000925F00B8
:100890000F901F9018950024552704C0080E591F6B
:1008A000880F991F009729F076956795B8F3710521
:1008B000B9F7802D952F0895AA1BBB1B51E107C0E6
:1008C000AA1FBB1FA617B70710F0A61BB70B881FE0
:1008D000991F5A95A9F780959095BC01CD0108956F
:0408E000F894FFCFBA
:1008E400808386898C8F9295989B9EA1A4A7AAAD9C
:1008F400B0B3B6B9BBBEC1C3C6C9CBCED0D2D5D7AF
:10090400D9DBDEE0E2E4E6E7E9EBECEEF0F1F2F469
:10091400F5F6F7F8F9FAFBFBFCFDFDFEFEFEFEFE24
:10092400FFFEFEFEFEFEFDFDFCFBFBFAF9F8F7F60A
:10093400F5F4F2F1F0EEECEBE9E7E6E4E2E0DEDB1D
:10094400D9D7D5D2D0CECBC9C6C3C1BEBBB9B6B335
:10095400B0ADAAA7A4A19E9B9895928F8C898683FB
:10096400807C797673706D6A6764615E5B585552FA
:100974004F4C494644413E3C393634312F2D2A28C8
:100984002624211F1D1B1918161413110F0E0D0BED
:100994000A09080706050404030202010101010112
:1009A400010101010101020203040405060708090B
:1009B4000A0B0D0E0F1113141618191B1D1F2124D9
:1009C40026282A2D2F313436393C3E414446494CA1
:1009D4004F5255585B5E6164676A6D707376797CBB
:1009E40000000000000000000002020202020404F1
:1009F4000406060608080A0A0C0C0E10121416182F
:100A04001A1C1E2024262B2F33373B3F454B5258AC
:100A14005E646C747D858F99A4B0BCC8D7E5F3FE81
:100A2400FEF3E5D7C8BCB0A4998F857D746C645E71
:100A340058524B453F3B37332F2B2624201E1C1A7C
:100A440018161412100E0C0C0A0A080806060604DE
:100A54000404020202020000000000000000000082
:00000001FF
